{
  "_format": "hh-sol-artifact-1",
  "contractName": "RaffleSep",
  "sourceName": "contracts/RaffleSep.sol",
  "abi": [
    {
      "inputs": [
        {
          "internalType": "address",
          "name": "coordinatorAddress",
          "type": "address"
        }
      ],
      "stateMutability": "nonpayable",
      "type": "constructor"
    },
    {
      "inputs": [
        {
          "internalType": "address",
          "name": "spender",
          "type": "address"
        },
        {
          "internalType": "uint256",
          "name": "allowance",
          "type": "uint256"
        },
        {
          "internalType": "uint256",
          "name": "needed",
          "type": "uint256"
        }
      ],
      "name": "ERC20InsufficientAllowance",
      "type": "error"
    },
    {
      "inputs": [
        {
          "internalType": "address",
          "name": "sender",
          "type": "address"
        },
        {
          "internalType": "uint256",
          "name": "balance",
          "type": "uint256"
        },
        {
          "internalType": "uint256",
          "name": "needed",
          "type": "uint256"
        }
      ],
      "name": "ERC20InsufficientBalance",
      "type": "error"
    },
    {
      "inputs": [
        {
          "internalType": "address",
          "name": "approver",
          "type": "address"
        }
      ],
      "name": "ERC20InvalidApprover",
      "type": "error"
    },
    {
      "inputs": [
        {
          "internalType": "address",
          "name": "receiver",
          "type": "address"
        }
      ],
      "name": "ERC20InvalidReceiver",
      "type": "error"
    },
    {
      "inputs": [
        {
          "internalType": "address",
          "name": "sender",
          "type": "address"
        }
      ],
      "name": "ERC20InvalidSender",
      "type": "error"
    },
    {
      "inputs": [
        {
          "internalType": "address",
          "name": "spender",
          "type": "address"
        }
      ],
      "name": "ERC20InvalidSpender",
      "type": "error"
    },
    {
      "inputs": [
        {
          "internalType": "address",
          "name": "have",
          "type": "address"
        },
        {
          "internalType": "address",
          "name": "want",
          "type": "address"
        }
      ],
      "name": "OnlyCoordinatorCanFulfill",
      "type": "error"
    },
    {
      "anonymous": false,
      "inputs": [
        {
          "indexed": true,
          "internalType": "address",
          "name": "owner",
          "type": "address"
        },
        {
          "indexed": true,
          "internalType": "address",
          "name": "spender",
          "type": "address"
        },
        {
          "indexed": false,
          "internalType": "uint256",
          "name": "value",
          "type": "uint256"
        }
      ],
      "name": "Approval",
      "type": "event"
    },
    {
      "anonymous": false,
      "inputs": [
        {
          "indexed": false,
          "internalType": "address",
          "name": "",
          "type": "address"
        },
        {
          "indexed": false,
          "internalType": "uint256",
          "name": "",
          "type": "uint256"
        }
      ],
      "name": "Deposit",
      "type": "event"
    },
    {
      "anonymous": false,
      "inputs": [
        {
          "indexed": false,
          "internalType": "uint256",
          "name": "proposalId",
          "type": "uint256"
        }
      ],
      "name": "NewProposal",
      "type": "event"
    },
    {
      "anonymous": false,
      "inputs": [
        {
          "indexed": false,
          "internalType": "address",
          "name": "voter",
          "type": "address"
        },
        {
          "indexed": false,
          "internalType": "uint256",
          "name": "proposalId",
          "type": "uint256"
        }
      ],
      "name": "NewVote",
      "type": "event"
    },
    {
      "anonymous": false,
      "inputs": [
        {
          "indexed": true,
          "internalType": "address",
          "name": "from",
          "type": "address"
        },
        {
          "indexed": true,
          "internalType": "address",
          "name": "to",
          "type": "address"
        }
      ],
      "name": "OwnershipTransferRequested",
      "type": "event"
    },
    {
      "anonymous": false,
      "inputs": [
        {
          "indexed": true,
          "internalType": "address",
          "name": "from",
          "type": "address"
        },
        {
          "indexed": true,
          "internalType": "address",
          "name": "to",
          "type": "address"
        }
      ],
      "name": "OwnershipTransferred",
      "type": "event"
    },
    {
      "anonymous": false,
      "inputs": [
        {
          "indexed": false,
          "internalType": "uint256",
          "name": "proposalId",
          "type": "uint256"
        }
      ],
      "name": "ProposalEnd",
      "type": "event"
    },
    {
      "anonymous": false,
      "inputs": [
        {
          "indexed": false,
          "internalType": "uint256",
          "name": "requestId",
          "type": "uint256"
        },
        {
          "indexed": false,
          "internalType": "uint256[]",
          "name": "randomWords",
          "type": "uint256[]"
        }
      ],
      "name": "RequestFulfilled",
      "type": "event"
    },
    {
      "anonymous": false,
      "inputs": [
        {
          "indexed": false,
          "internalType": "uint256",
          "name": "requestId",
          "type": "uint256"
        },
        {
          "indexed": false,
          "internalType": "uint32",
          "name": "numWords",
          "type": "uint32"
        }
      ],
      "name": "RequestSent",
      "type": "event"
    },
    {
      "anonymous": false,
      "inputs": [
        {
          "indexed": true,
          "internalType": "address",
          "name": "from",
          "type": "address"
        },
        {
          "indexed": true,
          "internalType": "address",
          "name": "to",
          "type": "address"
        },
        {
          "indexed": false,
          "internalType": "uint256",
          "name": "value",
          "type": "uint256"
        }
      ],
      "name": "Transfer",
      "type": "event"
    },
    {
      "anonymous": false,
      "inputs": [
        {
          "indexed": false,
          "internalType": "address",
          "name": "",
          "type": "address"
        },
        {
          "indexed": false,
          "internalType": "uint256",
          "name": "",
          "type": "uint256"
        }
      ],
      "name": "Win",
      "type": "event"
    },
    {
      "inputs": [],
      "name": "_timeCheck",
      "outputs": [],
      "stateMutability": "view",
      "type": "function"
    },
    {
      "inputs": [],
      "name": "acceptOwnership",
      "outputs": [],
      "stateMutability": "nonpayable",
      "type": "function"
    },
    {
      "inputs": [
        {
          "internalType": "address",
          "name": "_address",
          "type": "address"
        },
        {
          "internalType": "uint256",
          "name": "_decimals",
          "type": "uint256"
        },
        {
          "internalType": "address",
          "name": "_feedAddress",
          "type": "address"
        }
      ],
      "name": "addToWhiteList",
      "outputs": [],
      "stateMutability": "nonpayable",
      "type": "function"
    },
    {
      "inputs": [
        {
          "internalType": "address",
          "name": "owner",
          "type": "address"
        },
        {
          "internalType": "address",
          "name": "spender",
          "type": "address"
        }
      ],
      "name": "allowance",
      "outputs": [
        {
          "internalType": "uint256",
          "name": "",
          "type": "uint256"
        }
      ],
      "stateMutability": "view",
      "type": "function"
    },
    {
      "inputs": [
        {
          "internalType": "address",
          "name": "spender",
          "type": "address"
        },
        {
          "internalType": "uint256",
          "name": "value",
          "type": "uint256"
        }
      ],
      "name": "approve",
      "outputs": [
        {
          "internalType": "bool",
          "name": "",
          "type": "bool"
        }
      ],
      "stateMutability": "nonpayable",
      "type": "function"
    },
    {
      "inputs": [
        {
          "internalType": "address",
          "name": "account",
          "type": "address"
        }
      ],
      "name": "balanceOf",
      "outputs": [
        {
          "internalType": "uint256",
          "name": "",
          "type": "uint256"
        }
      ],
      "stateMutability": "view",
      "type": "function"
    },
    {
      "inputs": [
        {
          "internalType": "uint256",
          "name": "value",
          "type": "uint256"
        }
      ],
      "name": "burn",
      "outputs": [],
      "stateMutability": "nonpayable",
      "type": "function"
    },
    {
      "inputs": [
        {
          "internalType": "address",
          "name": "account",
          "type": "address"
        },
        {
          "internalType": "uint256",
          "name": "value",
          "type": "uint256"
        }
      ],
      "name": "burnFrom",
      "outputs": [],
      "stateMutability": "nonpayable",
      "type": "function"
    },
    {
      "inputs": [
        {
          "internalType": "bytes",
          "name": "",
          "type": "bytes"
        }
      ],
      "name": "checkUpkeep",
      "outputs": [
        {
          "internalType": "bool",
          "name": "upkeepNeeded",
          "type": "bool"
        },
        {
          "internalType": "bytes",
          "name": "performData",
          "type": "bytes"
        }
      ],
      "stateMutability": "view",
      "type": "function"
    },
    {
      "inputs": [
        {
          "internalType": "address",
          "name": "_tokenAddress",
          "type": "address"
        }
      ],
      "name": "conectToPriceFeed",
      "outputs": [],
      "stateMutability": "nonpayable",
      "type": "function"
    },
    {
      "inputs": [
        {
          "internalType": "address",
          "name": "_tokenAddress",
          "type": "address"
        }
      ],
      "name": "conectToToken",
      "outputs": [],
      "stateMutability": "nonpayable",
      "type": "function"
    },
    {
      "inputs": [],
      "name": "count",
      "outputs": [
        {
          "internalType": "uint8",
          "name": "",
          "type": "uint8"
        }
      ],
      "stateMutability": "view",
      "type": "function"
    },
    {
      "inputs": [],
      "name": "decimals",
      "outputs": [
        {
          "internalType": "uint8",
          "name": "",
          "type": "uint8"
        }
      ],
      "stateMutability": "view",
      "type": "function"
    },
    {
      "inputs": [
        {
          "internalType": "address",
          "name": "_tokenAddress",
          "type": "address"
        },
        {
          "internalType": "uint256",
          "name": "_amount",
          "type": "uint256"
        }
      ],
      "name": "dep",
      "outputs": [],
      "stateMutability": "nonpayable",
      "type": "function"
    },
    {
      "inputs": [
        {
          "internalType": "uint256",
          "name": "_proposalId",
          "type": "uint256"
        }
      ],
      "name": "executeVote",
      "outputs": [],
      "stateMutability": "nonpayable",
      "type": "function"
    },
    {
      "inputs": [
        {
          "internalType": "uint256",
          "name": "_requestId",
          "type": "uint256"
        }
      ],
      "name": "getRequestStatus",
      "outputs": [
        {
          "internalType": "bool",
          "name": "fulfilled",
          "type": "bool"
        },
        {
          "internalType": "uint256[]",
          "name": "randomWords",
          "type": "uint256[]"
        }
      ],
      "stateMutability": "view",
      "type": "function"
    },
    {
      "inputs": [],
      "name": "getUserDepValue",
      "outputs": [
        {
          "internalType": "uint256",
          "name": "",
          "type": "uint256"
        }
      ],
      "stateMutability": "view",
      "type": "function"
    },
    {
      "inputs": [
        {
          "internalType": "uint256[]",
          "name": "values",
          "type": "uint256[]"
        }
      ],
      "name": "hashProposal",
      "outputs": [
        {
          "internalType": "uint256",
          "name": "",
          "type": "uint256"
        }
      ],
      "stateMutability": "pure",
      "type": "function"
    },
    {
      "inputs": [],
      "name": "impl",
      "outputs": [
        {
          "internalType": "address",
          "name": "",
          "type": "address"
        }
      ],
      "stateMutability": "view",
      "type": "function"
    },
    {
      "inputs": [
        {
          "internalType": "address",
          "name": "_address",
          "type": "address"
        }
      ],
      "name": "isAddressWhiteListed",
      "outputs": [
        {
          "internalType": "bool",
          "name": "",
          "type": "bool"
        }
      ],
      "stateMutability": "view",
      "type": "function"
    },
    {
      "inputs": [],
      "name": "lastRequestId",
      "outputs": [
        {
          "internalType": "uint256",
          "name": "",
          "type": "uint256"
        }
      ],
      "stateMutability": "view",
      "type": "function"
    },
    {
      "inputs": [],
      "name": "minBalanceToVote",
      "outputs": [
        {
          "internalType": "uint256",
          "name": "",
          "type": "uint256"
        }
      ],
      "stateMutability": "view",
      "type": "function"
    },
    {
      "inputs": [],
      "name": "minOvertake",
      "outputs": [
        {
          "internalType": "int8",
          "name": "",
          "type": "int8"
        }
      ],
      "stateMutability": "view",
      "type": "function"
    },
    {
      "inputs": [
        {
          "internalType": "address",
          "name": "to",
          "type": "address"
        },
        {
          "internalType": "uint256",
          "name": "amount",
          "type": "uint256"
        }
      ],
      "name": "mint",
      "outputs": [],
      "stateMutability": "nonpayable",
      "type": "function"
    },
    {
      "inputs": [],
      "name": "name",
      "outputs": [
        {
          "internalType": "string",
          "name": "",
          "type": "string"
        }
      ],
      "stateMutability": "view",
      "type": "function"
    },
    {
      "inputs": [],
      "name": "owner",
      "outputs": [
        {
          "internalType": "address",
          "name": "",
          "type": "address"
        }
      ],
      "stateMutability": "view",
      "type": "function"
    },
    {
      "inputs": [
        {
          "internalType": "bytes",
          "name": "",
          "type": "bytes"
        }
      ],
      "name": "performUpkeep",
      "outputs": [],
      "stateMutability": "nonpayable",
      "type": "function"
    },
    {
      "inputs": [],
      "name": "potTotalValue",
      "outputs": [
        {
          "internalType": "uint256",
          "name": "",
          "type": "uint256"
        }
      ],
      "stateMutability": "view",
      "type": "function"
    },
    {
      "inputs": [
        {
          "internalType": "uint256[]",
          "name": "_values",
          "type": "uint256[]"
        }
      ],
      "name": "propose",
      "outputs": [
        {
          "internalType": "uint256",
          "name": "",
          "type": "uint256"
        }
      ],
      "stateMutability": "nonpayable",
      "type": "function"
    },
    {
      "inputs": [
        {
          "internalType": "uint256",
          "name": "requestId",
          "type": "uint256"
        },
        {
          "internalType": "uint256[]",
          "name": "randomWords",
          "type": "uint256[]"
        }
      ],
      "name": "rawFulfillRandomWords",
      "outputs": [],
      "stateMutability": "nonpayable",
      "type": "function"
    },
    {
      "inputs": [
        {
          "internalType": "uint256",
          "name": "",
          "type": "uint256"
        }
      ],
      "name": "requestIds",
      "outputs": [
        {
          "internalType": "uint256",
          "name": "",
          "type": "uint256"
        }
      ],
      "stateMutability": "view",
      "type": "function"
    },
    {
      "inputs": [],
      "name": "requestRandomWords",
      "outputs": [
        {
          "internalType": "uint256",
          "name": "requestId",
          "type": "uint256"
        }
      ],
      "stateMutability": "nonpayable",
      "type": "function"
    },
    {
      "inputs": [],
      "name": "routerAddress",
      "outputs": [
        {
          "internalType": "address",
          "name": "",
          "type": "address"
        }
      ],
      "stateMutability": "view",
      "type": "function"
    },
    {
      "inputs": [
        {
          "internalType": "uint256",
          "name": "",
          "type": "uint256"
        }
      ],
      "name": "s_requests",
      "outputs": [
        {
          "internalType": "bool",
          "name": "fulfilled",
          "type": "bool"
        },
        {
          "internalType": "bool",
          "name": "exists",
          "type": "bool"
        }
      ],
      "stateMutability": "view",
      "type": "function"
    },
    {
      "inputs": [
        {
          "internalType": "address",
          "name": "_address",
          "type": "address"
        }
      ],
      "name": "setNewCOORDINATOR",
      "outputs": [],
      "stateMutability": "nonpayable",
      "type": "function"
    },
    {
      "inputs": [
        {
          "internalType": "address",
          "name": "_address",
          "type": "address"
        }
      ],
      "name": "setOutAddress",
      "outputs": [],
      "stateMutability": "nonpayable",
      "type": "function"
    },
    {
      "inputs": [
        {
          "internalType": "uint256",
          "name": "_timeToWait",
          "type": "uint256"
        }
      ],
      "name": "setTimeToWait",
      "outputs": [],
      "stateMutability": "nonpayable",
      "type": "function"
    },
    {
      "inputs": [],
      "name": "startTime",
      "outputs": [
        {
          "internalType": "uint256",
          "name": "",
          "type": "uint256"
        }
      ],
      "stateMutability": "view",
      "type": "function"
    },
    {
      "inputs": [],
      "name": "swapRouter",
      "outputs": [
        {
          "internalType": "contract IUniswapV2Router02",
          "name": "",
          "type": "address"
        }
      ],
      "stateMutability": "view",
      "type": "function"
    },
    {
      "inputs": [],
      "name": "symbol",
      "outputs": [
        {
          "internalType": "string",
          "name": "",
          "type": "string"
        }
      ],
      "stateMutability": "view",
      "type": "function"
    },
    {
      "inputs": [],
      "name": "timeToWait",
      "outputs": [
        {
          "internalType": "uint256",
          "name": "",
          "type": "uint256"
        }
      ],
      "stateMutability": "view",
      "type": "function"
    },
    {
      "inputs": [],
      "name": "tokenContract",
      "outputs": [
        {
          "internalType": "contract IERC20",
          "name": "",
          "type": "address"
        }
      ],
      "stateMutability": "view",
      "type": "function"
    },
    {
      "inputs": [],
      "name": "totalSupply",
      "outputs": [
        {
          "internalType": "uint256",
          "name": "",
          "type": "uint256"
        }
      ],
      "stateMutability": "view",
      "type": "function"
    },
    {
      "inputs": [
        {
          "internalType": "address",
          "name": "to",
          "type": "address"
        },
        {
          "internalType": "uint256",
          "name": "value",
          "type": "uint256"
        }
      ],
      "name": "transfer",
      "outputs": [
        {
          "internalType": "bool",
          "name": "",
          "type": "bool"
        }
      ],
      "stateMutability": "nonpayable",
      "type": "function"
    },
    {
      "inputs": [
        {
          "internalType": "address",
          "name": "from",
          "type": "address"
        },
        {
          "internalType": "address",
          "name": "to",
          "type": "address"
        },
        {
          "internalType": "uint256",
          "name": "value",
          "type": "uint256"
        }
      ],
      "name": "transferFrom",
      "outputs": [
        {
          "internalType": "bool",
          "name": "",
          "type": "bool"
        }
      ],
      "stateMutability": "nonpayable",
      "type": "function"
    },
    {
      "inputs": [
        {
          "internalType": "address",
          "name": "to",
          "type": "address"
        }
      ],
      "name": "transferOwnership",
      "outputs": [],
      "stateMutability": "nonpayable",
      "type": "function"
    },
    {
      "inputs": [
        {
          "internalType": "uint256",
          "name": "_proposalId",
          "type": "uint256"
        },
        {
          "internalType": "int8",
          "name": "support",
          "type": "int8"
        }
      ],
      "name": "vote",
      "outputs": [],
      "stateMutability": "nonpayable",
      "type": "function"
    },
    {
      "inputs": [],
      "name": "voteDuration",
      "outputs": [
        {
          "internalType": "uint256",
          "name": "",
          "type": "uint256"
        }
      ],
      "stateMutability": "view",
      "type": "function"
    },
    {
      "stateMutability": "payable",
      "type": "receive"
    }
  ],
  "bytecode": "0x60c06040527f474e34a077df58807dbe9c96d3c009b23b3c6d0cce433e59bbf5b34f823bc56c6006556007805466020003002625a06001600160501b0319909116179055603c600e55600f805460ff1990811660019081179092556064601055601180549091169091179055601780546001600160a01b0319167394a9d9ac8a22534e3faca9f4e7f2e2cf85d5e4c817905573c532a74256d3db42d0bf7a0400fefdbad769400860a0526003601d556000601e55605a601f5560056020819055602155348015620000cf57600080fd5b50604051620033bf380380620033bf833981016040819052620000f2916200030f565b604080518082018252600781526626bcaa37b5b2b760c91b602080830191909152825180840190935260038352624d544b60e81b908301526001600160a01b03831660805290612b39833380600081620001935760405162461bcd60e51b815260206004820152601860248201527f43616e6e6f7420736574206f776e657220746f207a65726f000000000000000060448201526064015b60405180910390fd5b600080546001600160a01b0319166001600160a01b0384811691909117909155811615620001c657620001c68162000264565b5050600380546001600160401b03909416600160a01b026001600160e01b03199094166001600160a01b039093169290921792909217905550600b6200020d8382620003e8565b50600c6200021c8282620003e8565b5050600d80546001600160a01b031933818116928216929092179091179091556016805490911673986b5e1e1755e3c2440e960477f25201b0a8bbd417905550620004b49050565b336001600160a01b03821603620002be5760405162461bcd60e51b815260206004820152601760248201527f43616e6e6f74207472616e7366657220746f2073656c6600000000000000000060448201526064016200018a565b600180546001600160a01b0319166001600160a01b0383811691821790925560008054604051929316917fed8889f560326eb138920d842192f0eb3dd22b4f139c87a2c57538e05bae12789190a350565b6000602082840312156200032257600080fd5b81516001600160a01b03811681146200033a57600080fd5b9392505050565b634e487b7160e01b600052604160045260246000fd5b600181811c908216806200036c57607f821691505b6020821081036200038d57634e487b7160e01b600052602260045260246000fd5b50919050565b601f821115620003e3576000816000526020600020601f850160051c81016020861015620003be5750805b601f850160051c820191505b81811015620003df57828155600101620003ca565b5050505b505050565b81516001600160401b0381111562000404576200040462000341565b6200041c8162000415845462000357565b8462000393565b602080601f8311600181146200045457600084156200043b5750858301515b600019600386901b1c1916600185901b178555620003df565b600085815260208120601f198616915b82811015620004855788860151825594840194600190910190840162000464565b5085821015620004a45787850151600019600388901b60f8161c191681555b5050505050600190811b01905550565b60805160a051612ed0620004ef6000396000818161087001528181611230015261133c015260008181610b3a0152610b7c0152612ed06000f3fe6080604052600436106103175760003560e01c806383d579971161019a578063b4c2c44d116100e1578063e0c862891161008a578063f2fde38b11610064578063f2fde38b1461099e578063f98a4eca146109be578063fc2a88c3146109de57600080fd5b8063e0c8628914610949578063ee6502481461095e578063ee8f9d291461097e57600080fd5b8063d8a4676f116100bb578063d8a4676f146108bf578063dbe1c4d5146108ed578063dd62ed3e1461090357600080fd5b8063b4c2c44d1461083e578063c31c9c071461085e578063d07acae91461089257600080fd5b8063a168fa8911610143578063ab4a46bb1161011d578063ab4a46bb146107d0578063ad23de63146107e5578063b289b0ff1461081e57600080fd5b8063a168fa8914610740578063a327482114610790578063a9059cbb146107b057600080fd5b80638cd6bb6d116101745780638cd6bb6d146106ed5780638da5cb5b1461070d57806395d89b411461072b57600080fd5b806383d57997146106975780638796ba8c146106ad5780638abf6077146106cd57600080fd5b806340c10f191161025e5780636c0537171161020757806378e97925116101e157806378e979251461064c57806379ba50971461066257806379cc67901461067757600080fd5b80636c053717146105d25780636e04ff0d146105e857806370a082311461061657600080fd5b806355a373d61161023857806355a373d61461057c578063563644991461059c578063569f681f146105b257600080fd5b806340c10f191461051c57806342966c681461053c5780634585e33b1461055c57600080fd5b806321336748116102c0578063313ce5671161029a578063313ce567146104965780633268cc56146104aa5780633d04f3ac146104ea57600080fd5b8063213367481461040757806323b872dd146104275780632c656bbb1461044757600080fd5b806318160ddd116102f157806318160ddd146103a65780631c62c909146103c55780631fe543e3146103e757600080fd5b806306661abd1461032357806306fdde0314610354578063095ea7b31461037657600080fd5b3661031e57005b600080fd5b34801561032f57600080fd5b5060115461033d9060ff1681565b60405160ff90911681526020015b60405180910390f35b34801561036057600080fd5b506103696109f4565b60405161034b9190612710565b34801561038257600080fd5b50610396610391366004612746565b610a86565b604051901515815260200161034b565b3480156103b257600080fd5b50600a545b60405190815260200161034b565b3480156103d157600080fd5b506103e56103e0366004612770565b610aa0565b005b3480156103f357600080fd5b506103e5610402366004612865565b610b2f565b34801561041357600080fd5b506103b76104223660046128ac565b610bb7565b34801561043357600080fd5b506103966104423660046128e9565b610d8f565b34801561045357600080fd5b506103e5610462366004612770565b6001600160a01b03908116600090815260196020526040902060010154601680546001600160a01b03191691909216179055565b3480156104a257600080fd5b50601261033d565b3480156104b657600080fd5b506104d273c532a74256d3db42d0bf7a0400fefdbad769400881565b6040516001600160a01b03909116815260200161034b565b3480156104f657600080fd5b5060115460ff166000908152601a602090815260408083203384529091529020546103b7565b34801561052857600080fd5b506103e5610537366004612746565b610e1b565b34801561054857600080fd5b506103e5610557366004612925565b610e25565b34801561056857600080fd5b506103e561057736600461293e565b610e32565b34801561058857600080fd5b506015546104d2906001600160a01b031681565b3480156105a857600080fd5b506103b7600e5481565b3480156105be57600080fd5b506103b76105cd3660046128ac565b610e3f565b3480156105de57600080fd5b506103b760105481565b3480156105f457600080fd5b5061060861060336600461293e565b610e70565b60405161034b9291906129b0565b34801561062257600080fd5b506103b7610631366004612770565b6001600160a01b031660009081526008602052604090205490565b34801561065857600080fd5b506103b7601e5481565b34801561066e57600080fd5b506103e5610e9c565b34801561068357600080fd5b506103e5610692366004612746565b610f4d565b3480156106a357600080fd5b506103b7601c5481565b3480156106b957600080fd5b506103b76106c8366004612925565b610f62565b3480156106d957600080fd5b506014546104d2906001600160a01b031681565b3480156106f957600080fd5b506103e5610708366004612746565b610f83565b34801561071957600080fd5b506000546001600160a01b03166104d2565b34801561073757600080fd5b50610369611474565b34801561074c57600080fd5b5061077961075b366004612925565b60026020526000908152604090205460ff8082169161010090041682565b60408051921515835290151560208301520161034b565b34801561079c57600080fd5b506103e56107ab3660046129cb565b611483565b3480156107bc57600080fd5b506103966107cb366004612746565b611534565b3480156107dc57600080fd5b506103e561159f565b3480156107f157600080fd5b50610396610800366004612770565b6001600160a01b031660009081526018602052604090205460ff1690565b34801561082a57600080fd5b506103e5610839366004612770565b611625565b34801561084a57600080fd5b506103e5610859366004612925565b61164f565b34801561086a57600080fd5b506104d27f000000000000000000000000000000000000000000000000000000000000000081565b34801561089e57600080fd5b50600f546108ac9060000b81565b60405160009190910b815260200161034b565b3480156108cb57600080fd5b506108df6108da366004612925565b6116a1565b60405161034b929190612a43565b3480156108f957600080fd5b506103b7601d5481565b34801561090f57600080fd5b506103b761091e366004612a5e565b6001600160a01b03918216600090815260096020908152604080832093909416825291909152205490565b34801561095557600080fd5b506103b7611795565b34801561096a57600080fd5b506103e5610979366004612a91565b61195a565b34801561098a57600080fd5b506103e5610999366004612770565b611ae2565b3480156109aa57600080fd5b506103e56109b9366004612770565b611b51565b3480156109ca57600080fd5b506103e56109d9366004612925565b611b62565b3480156109ea57600080fd5b506103b760055481565b6060600b8054610a0390612ac7565b80601f0160208091040260200160405190810160405280929190818152602001828054610a2f90612ac7565b8015610a7c5780601f10610a5157610100808354040283529160200191610a7c565b820191906000526020600020905b815481529060010190602001808311610a5f57829003601f168201915b5050505050905090565b600033610a94818585611e08565b60019150505b92915050565b6001600160a01b03811660009081526018602052604090205460ff16610b0d5760405162461bcd60e51b815260206004820152601560248201527f546f6b656e206e6f742077686974656c6973746564000000000000000000000060448201526064015b60405180910390fd5b601580546001600160a01b0319166001600160a01b0392909216919091179055565b336001600160a01b037f00000000000000000000000000000000000000000000000000000000000000001614610ba95760405163073e64fd60e21b81523360048201526001600160a01b037f0000000000000000000000000000000000000000000000000000000000000000166024820152604401610b04565b610bb38282611e15565b5050565b600060126000610bc684610e3f565b815260200190815260200160002060010154600014610c275760405162461bcd60e51b815260206004820152601d60248201527f537563682070726f706f73616c20616c726561647920657873697374210000006044820152606401610b04565b60115460ff1660009081526013602090815260408083203380855292529091205415610c955760405162461bcd60e51b815260206004820152601760248201527f596f75206861766520616c726561647920766f746564210000000000000000006044820152606401610b04565b6000610ca084610e3f565b604080516080810182526001600160a01b0385811682524260208084019182528385018a81526000606086018190528781526012835295909520845181546001600160a01b0319169416939093178355905160018301559251805194955091939092610d13926002850192910190612650565b50606091909101516003909101805460ff191660ff9283161790556011541660009081526013602090815260408083206001600160a01b038616845282529182902083905590518281527f9a863892f20a6b9c6cec64d611b5864be6373191ce2cacc3b05a299bce3bf80e910160405180910390a19392505050565b60115460ff1660009081526013602090815260408083206001600160a01b0387168452909152812054339015610dfa5760405162461bcd60e51b815260206004820152601060248201526f596f752061726520696e20766f74652160801b6044820152606401610b04565b610e05858285611ed8565b610e10858585611f56565b506001949350505050565b610bb38282611fb5565b610e2f3382611feb565b50565b610e3a611795565b505050565b600081604051602001610e529190612b01565b60408051601f19818403018152919052805160209091012092915050565b60006060601d54601e54610e849190612b2a565b42118015610e935750601c5415155b91509250929050565b6001546001600160a01b03163314610ef65760405162461bcd60e51b815260206004820152601660248201527f4d7573742062652070726f706f736564206f776e6572000000000000000000006044820152606401610b04565b60008054336001600160a01b0319808316821784556001805490911690556040516001600160a01b0390921692909183917f8be0079c531659141344cd1fd0a4f28419497f9722a3daafe3b4186f6b6457e091a350565b610f58823383611ed8565b610bb38282611feb565b60048181548110610f7257600080fd5b600091825260209091200154905081565b610f8c82610aa0565b6015546040516323b872dd60e01b8152336004820152306024820152604481018390526001600160a01b03909116906323b872dd906064016020604051808303816000875af1158015610fe3573d6000803e3d6000fd5b505050506040513d601f19601f820116820180604052508101906110079190612b3d565b6110535760405162461bcd60e51b815260206004820152601560248201527f546f6b656e207472616e73666572206661696c656400000000000000000000006044820152606401610b04565b601c546000036110625742601e555b60115460ff166000908152601a6020908152604080832033845290915281205490036110cb57601b80546001810182556000919091527f3ad8aa4f87544323a9d1e5dd902f40c356527a7955687113db5f9a85ad579dc10180546001600160a01b031916331790555b611103826001600160a01b03908116600090815260196020526040902060010154601680546001600160a01b03191691909216179055565b60165460408051633fabe5a360e21b815290516000926001600160a01b03169163feaf968c9160048083019260a09291908290030181865afa15801561114d573d6000803e3d6000fd5b505050506040513d601f19601f820116820180604052508101906111719190612b79565b5050506001600160a01b038516600090815260196020526040812054919350915061119d90600a612cad565b670de0b6b3a76400006111b08585612cb9565b6111ba9190612ce6565b6111c49190612ce6565b9050806000036112165760405162461bcd60e51b815260206004820152601560248201527f596f75722064657020746f6f6f6f6f20736d616c6c00000000000000000000006044820152606401610b04565b60155460405163095ea7b360e01b81526001600160a01b037f000000000000000000000000000000000000000000000000000000000000000081166004830152602482018690529091169063095ea7b3906044016020604051808303816000875af1158015611289573d6000803e3d6000fd5b505050506040513d601f19601f820116820180604052508101906112ad9190612b3d565b5060408051600280825260608201835260009260208301908036833701905050905084816000815181106112e3576112e3612cfa565b6001600160a01b03928316602091820292909201015260175482519116908290600190811061131457611314612cfa565b6001600160a01b0392831660209182029290920101526040516338ed173960e01b81526000917f000000000000000000000000000000000000000000000000000000000000000016906338ed1739906113799088908790879030904290600401612d10565b6000604051808303816000875af1158015611398573d6000803e3d6000fd5b505050506040513d6000823e601f3d908101601f191682016040526113c09190810190612d83565b90506000816001815181106113d7576113d7612cfa565b60209081029190910181015160115460ff166000908152601a83526040808220338352909352918220805491935083929091611414908490612b2a565b9250508190555080601c600082825461142d9190612b2a565b909155505060408051338152602081018390527fe1fffcc4923d04b559f4d29a8bfc6cda04eb5b0d3c460751c2402c5c5cc9109c910160405180910390a150505050505050565b6060600c8054610a0390612ac7565b600d546001600160a01b031633146114d05760405162461bcd60e51b815260206004820152601060248201526f596f7520617265206e6f742068696d2160801b6044820152606401610b04565b6001600160a01b0392831660008181526018602090815260408083208054600160ff19909116811790915581518083018352968752948716868301908152938352601990915290209251835551910180546001600160a01b03191691909216179055565b60115460ff166000908152601360209081526040808320338085529252822054156115945760405162461bcd60e51b815260206004820152601060248201526f596f752061726520696e20766f74652160801b6044820152606401610b04565b610a94818585611f56565b601d54601e546115af9190612b2a565b42116116235760405162461bcd60e51b815260206004820152603a60248201527f54696d65206973206e6f7420746f206265207761737465642c2067616d626c6560448201527f206d6f7265207768696c6520796f75207374696c6c2063616e210000000000006064820152608401610b04565b565b61162d612021565b600380546001600160a01b0319166001600160a01b0392909216919091179055565b600d546001600160a01b0316331461169c5760405162461bcd60e51b815260206004820152601060248201526f596f7520617265206e6f742068696d2160801b6044820152606401610b04565b601d55565b600081815260026020526040812054606090610100900460ff166116fb5760405162461bcd60e51b81526020600482015260116024820152701c995c5d595cdd081b9bdd08199bdd5b99607a1b6044820152606401610b04565b60008381526002602090815260408083208151606081018352815460ff808216151583526101009091041615158185015260018201805484518187028101870186528181529295939486019383018282801561177657602002820191906000526020600020905b815481526020019060010190808311611762575b5050505050815250509050806000015181604001519250925050915091565b600061179f61159f565b6003546006546007546040516305d3b1d360e41b81526004810192909252600160a01b830467ffffffffffffffff166024830152640100000000810461ffff16604483015263ffffffff808216606484015266010000000000009091041660848201526001600160a01b0390911690635d3b1d309060a4016020604051808303816000875af1158015611836573d6000803e3d6000fd5b505050506040513d601f19601f8201168201806040525081019061185a9190612e14565b6040805160608101825260008082526001602080840182815285518481528083018752858701908152878552600283529590932084518154945161ffff1990951690151561ff001916176101009415159490940293909317835593518051959650929491936118cf9391850192910190612650565b5050600480546001810182556000919091527f8a35acfbc15ff81a39ae7d344fd709f28e8600b4aa8c65c6b64bfe7fe36bd19b0182905550600581905560075460408051838152660100000000000090920463ffffffff1660208301527fcc58b13ad3eab50626c6a6300b1d139cd6ebb1688a7cced9461c2f7e762665ee910160405180910390a190565b6000828152601260205260409020600101546119ab5760405162461bcd60e51b815260206004820152601060248201526f139bc81cdd58da081c1c9bdc1bdcd85b60821b6044820152606401610b04565b8060000b60001914806119c157508060000b6001145b6119f85760405162461bcd60e51b8152602060048201526008602482015267496e76616c69643f60c01b6044820152606401610b04565b6010543360008181526008602052604090205490911115611a5b5760405162461bcd60e51b815260206004820152601260248201527f4e6f7420656e6f7567687420706f7765722100000000000000000000000000006044820152606401610b04565b60008381526012602052604081206003018054849290611a7e908490830b612e2d565b825460ff9182166101009390930a928302919092021990911617905550604080516001600160a01b0383168152602081018590527fff14080bcf45460ad8e42f48fb1741ebb5632b5394c805a3526ecc99e9a97a54910160405180910390a1505050565b600d546001600160a01b03163314611b2f5760405162461bcd60e51b815260206004820152601060248201526f596f7520617265206e6f742068696d2160801b6044820152606401610b04565b601780546001600160a01b0319166001600160a01b0392909216919091179055565b611b5961206e565b610e2f816120c8565b60008181526012602052604090206001810154611bb45760405162461bcd60e51b815260206004820152601060248201526f139bc81cdd58da081c1c9bdc1bdcd85b60821b6044820152606401610b04565b600e548160010154611bc69190612b2a565b4211611c145760405162461bcd60e51b815260206004820152601360248201527f566f7465206973207374696c6c20676f696e67000000000000000000000000006044820152606401610b04565b600f546003820154600091820b910b13611c705760405162461bcd60e51b815260206004820152601260248201527f51756f72756d206e6f74207265616368656400000000000000000000000000006044820152606401610b04565b6011805460ff16906000611c8383612e4e565b91906101000a81548160ff021916908360ff16021790555050604051806080016040528060006001600160a01b0316815260200160008152602001600067ffffffffffffffff811115611cd857611cd861278b565b604051908082528060200260200182016040528015611d01578160200160208202803683370190505b5081526000602091820181905284815260128252604090819020835181546001600160a01b0319166001600160a01b039091161781558383015160018201559083015180519192611d5a92600285019290910190612650565b50606091909101516003909101805460ff191660ff90921691909117905560028101805460408051602080840282018101909252828152611dd09390929091830182828015611dc857602002820191906000526020600020905b815481526020019060010190808311611db4575b505050505050565b6040518281527f5aa6cc03c285cf43c4e52f19f8e637fa3fa4a1f04bdaf771c59abf6d48074790906020015b60405180910390a15050565b610e3a8383836001612171565b600082815260026020526040902054610100900460ff16611e6c5760405162461bcd60e51b81526020600482015260116024820152701c995c5d595cdd081b9bdd08199bdd5b99607a1b6044820152606401610b04565b6000828152600260209081526040909120805460ff1916600190811782558351611e9d939290910191840190612650565b50611ea781612246565b7ffe2e2d779dba245964d4e3ef9b994be63856fd568bf7d3ca9e224755cb1bd54d8282604051611dfc929190612e6d565b6001600160a01b038381166000908152600960209081526040808320938616835292905220546000198114611f505781811015611f4157604051637dc7a0d960e11b81526001600160a01b03841660048201526024810182905260448101839052606401610b04565b611f5084848484036000612171565b50505050565b6001600160a01b038316611f8057604051634b637e8f60e11b815260006004820152602401610b04565b6001600160a01b038216611faa5760405163ec442f0560e01b815260006004820152602401610b04565b610e3a838383612526565b6001600160a01b038216611fdf5760405163ec442f0560e01b815260006004820152602401610b04565b610bb360008383612526565b6001600160a01b03821661201557604051634b637e8f60e11b815260006004820152602401610b04565b610bb382600083612526565b600d546001600160a01b031633146116235760405162461bcd60e51b815260206004820152601060248201526f596f7520617265206e6f742068696d2160801b6044820152606401610b04565b6000546001600160a01b031633146116235760405162461bcd60e51b815260206004820152601660248201527f4f6e6c792063616c6c61626c65206279206f776e6572000000000000000000006044820152606401610b04565b336001600160a01b038216036121205760405162461bcd60e51b815260206004820152601760248201527f43616e6e6f74207472616e7366657220746f2073656c660000000000000000006044820152606401610b04565b600180546001600160a01b0319166001600160a01b0383811691821790925560008054604051929316917fed8889f560326eb138920d842192f0eb3dd22b4f139c87a2c57538e05bae12789190a350565b6001600160a01b03841661219b5760405163e602df0560e01b815260006004820152602401610b04565b6001600160a01b0383166121c557604051634a1406b160e11b815260006004820152602401610b04565b6001600160a01b0380851660009081526009602090815260408083209387168352929052208290558015611f5057826001600160a01b0316846001600160a01b03167f8c5be1e5ebec7d5bd14f71427d1e84f3dd0314c0f7b2291e5b200ac8c7c3b9258460405161223891815260200190565b60405180910390a350505050565b60008060005b601b5481101561235c5760115460ff166000908152601a60205260408120601b80549192918490811061228157612281612cfa565b60009182526020808320909101546001600160a01b031683528201929092526040019020546122b09083612b2a565b91506000601c54856000815181106122ca576122ca612cfa565b6020026020010151116122f757846000815181106122ea576122ea612cfa565b602002602001015161231f565b601c548560008151811061230d5761230d612cfa565b602002602001015161231f9190612e86565b905082811161235357601b828154811061233b5761233b612cfa565b6000918252602090912001546001600160a01b031693505b5060010161224c565b506001600160a01b03821661239757601b60008154811061237f5761237f612cfa565b6000918252602090912001546001600160a01b031691505b6017546040516370a0823160e01b81523060048201526001600160a01b0390911690819063a9059cbb90859083906370a0823190602401602060405180830381865afa1580156123eb573d6000803e3d6000fd5b505050506040513d601f19601f8201168201806040525081019061240f9190612e14565b6040517fffffffff0000000000000000000000000000000000000000000000000000000060e085901b1681526001600160a01b03909216600483015260248201526044016020604051808303816000875af1158015612472573d6000803e3d6000fd5b505050506040513d601f19601f820116820180604052508101906124969190612b3d565b506011805460ff169060006124aa83612e4e565b91906101000a81548160ff021916908360ff16021790555050601b60006124d1919061269b565b6000601c819055601e819055604080516001600160a01b038616815260208101929092527f6747c18256028de8cd2fa276e75d6b4193ac34c1b55fa8e71797ac132d32ad39910160405180910390a150505050565b6001600160a01b0383166125515780600a60008282546125469190612b2a565b909155506125c39050565b6001600160a01b038316600090815260086020526040902054818110156125a45760405163391434e360e21b81526001600160a01b03851660048201526024810182905260448101839052606401610b04565b6001600160a01b03841660009081526008602052604090209082900390555b6001600160a01b0382166125df57600a805482900390556125fe565b6001600160a01b03821660009081526008602052604090208054820190555b816001600160a01b0316836001600160a01b03167fddf252ad1be2c89b69c2b068fc378daa952ba7f163c4a11628f55a4df523b3ef8360405161264391815260200190565b60405180910390a3505050565b82805482825590600052602060002090810192821561268b579160200282015b8281111561268b578251825591602001919060010190612670565b506126979291506126b5565b5090565b5080546000825590600052602060002090810190610e2f91905b5b8082111561269757600081556001016126b6565b6000815180845260005b818110156126f0576020818501810151868301820152016126d4565b506000602082860101526020601f19601f83011685010191505092915050565b60208152600061272360208301846126ca565b9392505050565b80356001600160a01b038116811461274157600080fd5b919050565b6000806040838503121561275957600080fd5b6127628361272a565b946020939093013593505050565b60006020828403121561278257600080fd5b6127238261272a565b634e487b7160e01b600052604160045260246000fd5b604051601f8201601f1916810167ffffffffffffffff811182821017156127ca576127ca61278b565b604052919050565b600067ffffffffffffffff8211156127ec576127ec61278b565b5060051b60200190565b600082601f83011261280757600080fd5b8135602061281c612817836127d2565b6127a1565b8083825260208201915060208460051b87010193508684111561283e57600080fd5b602086015b8481101561285a5780358352918301918301612843565b509695505050505050565b6000806040838503121561287857600080fd5b82359150602083013567ffffffffffffffff81111561289657600080fd5b6128a2858286016127f6565b9150509250929050565b6000602082840312156128be57600080fd5b813567ffffffffffffffff8111156128d557600080fd5b6128e1848285016127f6565b949350505050565b6000806000606084860312156128fe57600080fd5b6129078461272a565b92506129156020850161272a565b9150604084013590509250925092565b60006020828403121561293757600080fd5b5035919050565b6000806020838503121561295157600080fd5b823567ffffffffffffffff8082111561296957600080fd5b818501915085601f83011261297d57600080fd5b81358181111561298c57600080fd5b86602082850101111561299e57600080fd5b60209290920196919550909350505050565b82151581526040602082015260006128e160408301846126ca565b6000806000606084860312156129e057600080fd5b6129e98461272a565b9250602084013591506129fe6040850161272a565b90509250925092565b60008151808452602080850194506020840160005b83811015612a3857815187529582019590820190600101612a1c565b509495945050505050565b82151581526040602082015260006128e16040830184612a07565b60008060408385031215612a7157600080fd5b612a7a8361272a565b9150612a886020840161272a565b90509250929050565b60008060408385031215612aa457600080fd5b8235915060208301358060000b8114612abc57600080fd5b809150509250929050565b600181811c90821680612adb57607f821691505b602082108103612afb57634e487b7160e01b600052602260045260246000fd5b50919050565b6020815260006127236020830184612a07565b634e487b7160e01b600052601160045260246000fd5b80820180821115610a9a57610a9a612b14565b600060208284031215612b4f57600080fd5b8151801515811461272357600080fd5b805169ffffffffffffffffffff8116811461274157600080fd5b600080600080600060a08688031215612b9157600080fd5b612b9a86612b5f565b9450602086015193506040860151925060608601519150612bbd60808701612b5f565b90509295509295909350565b600181815b80851115612c04578160001904821115612bea57612bea612b14565b80851615612bf757918102915b93841c9390800290612bce565b509250929050565b600082612c1b57506001610a9a565b81612c2857506000610a9a565b8160018114612c3e5760028114612c4857612c64565b6001915050610a9a565b60ff841115612c5957612c59612b14565b50506001821b610a9a565b5060208310610133831016604e8410600b8410161715612c87575081810a610a9a565b612c918383612bc9565b8060001904821115612ca557612ca5612b14565b029392505050565b60006127238383612c0c565b8082028115828204841417610a9a57610a9a612b14565b634e487b7160e01b600052601260045260246000fd5b600082612cf557612cf5612cd0565b500490565b634e487b7160e01b600052603260045260246000fd5b600060a08201878352602087602085015260a0604085015281875180845260c08601915060208901935060005b81811015612d625784516001600160a01b031683529383019391830191600101612d3d565b50506001600160a01b03969096166060850152505050608001529392505050565b60006020808385031215612d9657600080fd5b825167ffffffffffffffff811115612dad57600080fd5b8301601f81018513612dbe57600080fd5b8051612dcc612817826127d2565b81815260059190911b82018301908381019087831115612deb57600080fd5b928401925b82841015612e0957835182529284019290840190612df0565b979650505050505050565b600060208284031215612e2657600080fd5b5051919050565b600081810b9083900b01607f8113607f1982121715610a9a57610a9a612b14565b600060ff821660ff8103612e6457612e64612b14565b60010192915050565b8281526040602082015260006128e16040830184612a07565b600082612e9557612e95612cd0565b50069056fea264697066735822122041c3de0e800b715f017aadcb25d9c6045673483784697c43154de8f7e408784e64736f6c63430008180033",
  "linkReferences": {},
  "deployedLinkReferences": {}
}