{
  "_format": "hh-sol-artifact-1",
  "contractName": "RaffleSep",
  "sourceName": "contracts/RaffleSep.sol",
  "abi": [
    {
      "inputs": [
        {
          "internalType": "address",
          "name": "coordinatorAddress",
          "type": "address"
        }
      ],
      "stateMutability": "nonpayable",
      "type": "constructor"
    },
    {
      "inputs": [
        {
          "internalType": "address",
          "name": "spender",
          "type": "address"
        },
        {
          "internalType": "uint256",
          "name": "allowance",
          "type": "uint256"
        },
        {
          "internalType": "uint256",
          "name": "needed",
          "type": "uint256"
        }
      ],
      "name": "ERC20InsufficientAllowance",
      "type": "error"
    },
    {
      "inputs": [
        {
          "internalType": "address",
          "name": "sender",
          "type": "address"
        },
        {
          "internalType": "uint256",
          "name": "balance",
          "type": "uint256"
        },
        {
          "internalType": "uint256",
          "name": "needed",
          "type": "uint256"
        }
      ],
      "name": "ERC20InsufficientBalance",
      "type": "error"
    },
    {
      "inputs": [
        {
          "internalType": "address",
          "name": "approver",
          "type": "address"
        }
      ],
      "name": "ERC20InvalidApprover",
      "type": "error"
    },
    {
      "inputs": [
        {
          "internalType": "address",
          "name": "receiver",
          "type": "address"
        }
      ],
      "name": "ERC20InvalidReceiver",
      "type": "error"
    },
    {
      "inputs": [
        {
          "internalType": "address",
          "name": "sender",
          "type": "address"
        }
      ],
      "name": "ERC20InvalidSender",
      "type": "error"
    },
    {
      "inputs": [
        {
          "internalType": "address",
          "name": "spender",
          "type": "address"
        }
      ],
      "name": "ERC20InvalidSpender",
      "type": "error"
    },
    {
      "inputs": [
        {
          "internalType": "address",
          "name": "have",
          "type": "address"
        },
        {
          "internalType": "address",
          "name": "want",
          "type": "address"
        }
      ],
      "name": "OnlyCoordinatorCanFulfill",
      "type": "error"
    },
    {
      "anonymous": false,
      "inputs": [
        {
          "indexed": true,
          "internalType": "address",
          "name": "owner",
          "type": "address"
        },
        {
          "indexed": true,
          "internalType": "address",
          "name": "spender",
          "type": "address"
        },
        {
          "indexed": false,
          "internalType": "uint256",
          "name": "value",
          "type": "uint256"
        }
      ],
      "name": "Approval",
      "type": "event"
    },
    {
      "anonymous": false,
      "inputs": [
        {
          "indexed": false,
          "internalType": "address",
          "name": "",
          "type": "address"
        },
        {
          "indexed": false,
          "internalType": "uint256",
          "name": "",
          "type": "uint256"
        }
      ],
      "name": "Deposit",
      "type": "event"
    },
    {
      "anonymous": false,
      "inputs": [
        {
          "indexed": false,
          "internalType": "uint256",
          "name": "proposalId",
          "type": "uint256"
        }
      ],
      "name": "NewProposal",
      "type": "event"
    },
    {
      "anonymous": false,
      "inputs": [
        {
          "indexed": false,
          "internalType": "address",
          "name": "voter",
          "type": "address"
        },
        {
          "indexed": false,
          "internalType": "uint256",
          "name": "proposalId",
          "type": "uint256"
        }
      ],
      "name": "NewVote",
      "type": "event"
    },
    {
      "anonymous": false,
      "inputs": [
        {
          "indexed": true,
          "internalType": "address",
          "name": "from",
          "type": "address"
        },
        {
          "indexed": true,
          "internalType": "address",
          "name": "to",
          "type": "address"
        }
      ],
      "name": "OwnershipTransferRequested",
      "type": "event"
    },
    {
      "anonymous": false,
      "inputs": [
        {
          "indexed": true,
          "internalType": "address",
          "name": "from",
          "type": "address"
        },
        {
          "indexed": true,
          "internalType": "address",
          "name": "to",
          "type": "address"
        }
      ],
      "name": "OwnershipTransferred",
      "type": "event"
    },
    {
      "anonymous": false,
      "inputs": [
        {
          "indexed": false,
          "internalType": "uint256",
          "name": "proposalId",
          "type": "uint256"
        }
      ],
      "name": "ProposalEnd",
      "type": "event"
    },
    {
      "anonymous": false,
      "inputs": [
        {
          "indexed": false,
          "internalType": "uint256",
          "name": "requestId",
          "type": "uint256"
        },
        {
          "indexed": false,
          "internalType": "uint256[]",
          "name": "randomWords",
          "type": "uint256[]"
        }
      ],
      "name": "RequestFulfilled",
      "type": "event"
    },
    {
      "anonymous": false,
      "inputs": [
        {
          "indexed": false,
          "internalType": "uint256",
          "name": "requestId",
          "type": "uint256"
        },
        {
          "indexed": false,
          "internalType": "uint32",
          "name": "numWords",
          "type": "uint32"
        }
      ],
      "name": "RequestSent",
      "type": "event"
    },
    {
      "anonymous": false,
      "inputs": [
        {
          "indexed": true,
          "internalType": "address",
          "name": "from",
          "type": "address"
        },
        {
          "indexed": true,
          "internalType": "address",
          "name": "to",
          "type": "address"
        },
        {
          "indexed": false,
          "internalType": "uint256",
          "name": "value",
          "type": "uint256"
        }
      ],
      "name": "Transfer",
      "type": "event"
    },
    {
      "anonymous": false,
      "inputs": [
        {
          "indexed": false,
          "internalType": "address",
          "name": "",
          "type": "address"
        },
        {
          "indexed": false,
          "internalType": "uint256",
          "name": "",
          "type": "uint256"
        }
      ],
      "name": "Win",
      "type": "event"
    },
    {
      "inputs": [],
      "name": "_timeCheck",
      "outputs": [],
      "stateMutability": "view",
      "type": "function"
    },
    {
      "inputs": [],
      "name": "acceptOwnership",
      "outputs": [],
      "stateMutability": "nonpayable",
      "type": "function"
    },
    {
      "inputs": [
        {
          "internalType": "address",
          "name": "_address",
          "type": "address"
        },
        {
          "internalType": "uint256",
          "name": "_decimals",
          "type": "uint256"
        },
        {
          "internalType": "address",
          "name": "_feedAddress",
          "type": "address"
        }
      ],
      "name": "addToWhiteList",
      "outputs": [],
      "stateMutability": "nonpayable",
      "type": "function"
    },
    {
      "inputs": [
        {
          "internalType": "address",
          "name": "owner",
          "type": "address"
        },
        {
          "internalType": "address",
          "name": "spender",
          "type": "address"
        }
      ],
      "name": "allowance",
      "outputs": [
        {
          "internalType": "uint256",
          "name": "",
          "type": "uint256"
        }
      ],
      "stateMutability": "view",
      "type": "function"
    },
    {
      "inputs": [
        {
          "internalType": "address",
          "name": "spender",
          "type": "address"
        },
        {
          "internalType": "uint256",
          "name": "value",
          "type": "uint256"
        }
      ],
      "name": "approve",
      "outputs": [
        {
          "internalType": "bool",
          "name": "",
          "type": "bool"
        }
      ],
      "stateMutability": "nonpayable",
      "type": "function"
    },
    {
      "inputs": [
        {
          "internalType": "address",
          "name": "account",
          "type": "address"
        }
      ],
      "name": "balanceOf",
      "outputs": [
        {
          "internalType": "uint256",
          "name": "",
          "type": "uint256"
        }
      ],
      "stateMutability": "view",
      "type": "function"
    },
    {
      "inputs": [
        {
          "internalType": "uint256",
          "name": "value",
          "type": "uint256"
        }
      ],
      "name": "burn",
      "outputs": [],
      "stateMutability": "nonpayable",
      "type": "function"
    },
    {
      "inputs": [
        {
          "internalType": "address",
          "name": "account",
          "type": "address"
        },
        {
          "internalType": "uint256",
          "name": "value",
          "type": "uint256"
        }
      ],
      "name": "burnFrom",
      "outputs": [],
      "stateMutability": "nonpayable",
      "type": "function"
    },
    {
      "inputs": [
        {
          "internalType": "bytes",
          "name": "",
          "type": "bytes"
        }
      ],
      "name": "checkUpkeep",
      "outputs": [
        {
          "internalType": "bool",
          "name": "upkeepNeeded",
          "type": "bool"
        },
        {
          "internalType": "bytes",
          "name": "performData",
          "type": "bytes"
        }
      ],
      "stateMutability": "view",
      "type": "function"
    },
    {
      "inputs": [
        {
          "internalType": "address",
          "name": "_tokenAddress",
          "type": "address"
        }
      ],
      "name": "conectToPriceFeed",
      "outputs": [],
      "stateMutability": "nonpayable",
      "type": "function"
    },
    {
      "inputs": [
        {
          "internalType": "address",
          "name": "_tokenAddress",
          "type": "address"
        }
      ],
      "name": "conectToToken",
      "outputs": [],
      "stateMutability": "nonpayable",
      "type": "function"
    },
    {
      "inputs": [],
      "name": "count",
      "outputs": [
        {
          "internalType": "uint8",
          "name": "",
          "type": "uint8"
        }
      ],
      "stateMutability": "view",
      "type": "function"
    },
    {
      "inputs": [],
      "name": "decimals",
      "outputs": [
        {
          "internalType": "uint8",
          "name": "",
          "type": "uint8"
        }
      ],
      "stateMutability": "view",
      "type": "function"
    },
    {
      "inputs": [
        {
          "internalType": "address",
          "name": "_tokenAddress",
          "type": "address"
        },
        {
          "internalType": "uint256",
          "name": "_amount",
          "type": "uint256"
        }
      ],
      "name": "dep",
      "outputs": [],
      "stateMutability": "nonpayable",
      "type": "function"
    },
    {
      "inputs": [
        {
          "internalType": "uint256",
          "name": "_proposalId",
          "type": "uint256"
        }
      ],
      "name": "executeVote",
      "outputs": [],
      "stateMutability": "nonpayable",
      "type": "function"
    },
    {
      "inputs": [
        {
          "internalType": "uint256",
          "name": "_requestId",
          "type": "uint256"
        }
      ],
      "name": "getRequestStatus",
      "outputs": [
        {
          "internalType": "bool",
          "name": "fulfilled",
          "type": "bool"
        },
        {
          "internalType": "uint256[]",
          "name": "randomWords",
          "type": "uint256[]"
        }
      ],
      "stateMutability": "view",
      "type": "function"
    },
    {
      "inputs": [],
      "name": "getUserDepValue",
      "outputs": [
        {
          "internalType": "uint256",
          "name": "",
          "type": "uint256"
        }
      ],
      "stateMutability": "view",
      "type": "function"
    },
    {
      "inputs": [
        {
          "internalType": "uint256[]",
          "name": "values",
          "type": "uint256[]"
        }
      ],
      "name": "hashProposal",
      "outputs": [
        {
          "internalType": "uint256",
          "name": "",
          "type": "uint256"
        }
      ],
      "stateMutability": "pure",
      "type": "function"
    },
    {
      "inputs": [],
      "name": "impl",
      "outputs": [
        {
          "internalType": "address",
          "name": "",
          "type": "address"
        }
      ],
      "stateMutability": "view",
      "type": "function"
    },
    {
      "inputs": [
        {
          "internalType": "address",
          "name": "_address",
          "type": "address"
        }
      ],
      "name": "isAddressWhiteListed",
      "outputs": [
        {
          "internalType": "bool",
          "name": "",
          "type": "bool"
        }
      ],
      "stateMutability": "view",
      "type": "function"
    },
    {
      "inputs": [],
      "name": "lastRequestId",
      "outputs": [
        {
          "internalType": "uint256",
          "name": "",
          "type": "uint256"
        }
      ],
      "stateMutability": "view",
      "type": "function"
    },
    {
      "inputs": [],
      "name": "minBalanceToVote",
      "outputs": [
        {
          "internalType": "uint256",
          "name": "",
          "type": "uint256"
        }
      ],
      "stateMutability": "view",
      "type": "function"
    },
    {
      "inputs": [],
      "name": "minOvertake",
      "outputs": [
        {
          "internalType": "int8",
          "name": "",
          "type": "int8"
        }
      ],
      "stateMutability": "view",
      "type": "function"
    },
    {
      "inputs": [
        {
          "internalType": "address",
          "name": "to",
          "type": "address"
        },
        {
          "internalType": "uint256",
          "name": "amount",
          "type": "uint256"
        }
      ],
      "name": "mint",
      "outputs": [],
      "stateMutability": "nonpayable",
      "type": "function"
    },
    {
      "inputs": [],
      "name": "name",
      "outputs": [
        {
          "internalType": "string",
          "name": "",
          "type": "string"
        }
      ],
      "stateMutability": "view",
      "type": "function"
    },
    {
      "inputs": [],
      "name": "owner",
      "outputs": [
        {
          "internalType": "address",
          "name": "",
          "type": "address"
        }
      ],
      "stateMutability": "view",
      "type": "function"
    },
    {
      "inputs": [
        {
          "internalType": "bytes",
          "name": "",
          "type": "bytes"
        }
      ],
      "name": "performUpkeep",
      "outputs": [],
      "stateMutability": "nonpayable",
      "type": "function"
    },
    {
      "inputs": [],
      "name": "potTotalValue",
      "outputs": [
        {
          "internalType": "uint256",
          "name": "",
          "type": "uint256"
        }
      ],
      "stateMutability": "view",
      "type": "function"
    },
    {
      "inputs": [
        {
          "internalType": "uint256[]",
          "name": "_values",
          "type": "uint256[]"
        }
      ],
      "name": "propose",
      "outputs": [
        {
          "internalType": "uint256",
          "name": "",
          "type": "uint256"
        }
      ],
      "stateMutability": "nonpayable",
      "type": "function"
    },
    {
      "inputs": [
        {
          "internalType": "uint256",
          "name": "requestId",
          "type": "uint256"
        },
        {
          "internalType": "uint256[]",
          "name": "randomWords",
          "type": "uint256[]"
        }
      ],
      "name": "rawFulfillRandomWords",
      "outputs": [],
      "stateMutability": "nonpayable",
      "type": "function"
    },
    {
      "inputs": [
        {
          "internalType": "uint256",
          "name": "",
          "type": "uint256"
        }
      ],
      "name": "requestIds",
      "outputs": [
        {
          "internalType": "uint256",
          "name": "",
          "type": "uint256"
        }
      ],
      "stateMutability": "view",
      "type": "function"
    },
    {
      "inputs": [],
      "name": "requestRandomWords",
      "outputs": [
        {
          "internalType": "uint256",
          "name": "requestId",
          "type": "uint256"
        }
      ],
      "stateMutability": "nonpayable",
      "type": "function"
    },
    {
      "inputs": [],
      "name": "routerAddress",
      "outputs": [
        {
          "internalType": "address",
          "name": "",
          "type": "address"
        }
      ],
      "stateMutability": "view",
      "type": "function"
    },
    {
      "inputs": [
        {
          "internalType": "uint256",
          "name": "",
          "type": "uint256"
        }
      ],
      "name": "s_requests",
      "outputs": [
        {
          "internalType": "bool",
          "name": "fulfilled",
          "type": "bool"
        },
        {
          "internalType": "bool",
          "name": "exists",
          "type": "bool"
        }
      ],
      "stateMutability": "view",
      "type": "function"
    },
    {
      "inputs": [
        {
          "internalType": "address",
          "name": "_address",
          "type": "address"
        }
      ],
      "name": "setFounder",
      "outputs": [],
      "stateMutability": "nonpayable",
      "type": "function"
    },
    {
      "inputs": [
        {
          "internalType": "address",
          "name": "_address",
          "type": "address"
        }
      ],
      "name": "setNewCOORDINATOR",
      "outputs": [],
      "stateMutability": "nonpayable",
      "type": "function"
    },
    {
      "inputs": [
        {
          "internalType": "address",
          "name": "_address",
          "type": "address"
        }
      ],
      "name": "setOutAddress",
      "outputs": [],
      "stateMutability": "nonpayable",
      "type": "function"
    },
    {
      "inputs": [
        {
          "internalType": "uint256",
          "name": "_timeToWait",
          "type": "uint256"
        }
      ],
      "name": "setTimeToWait",
      "outputs": [],
      "stateMutability": "nonpayable",
      "type": "function"
    },
    {
      "inputs": [],
      "name": "startTime",
      "outputs": [
        {
          "internalType": "uint256",
          "name": "",
          "type": "uint256"
        }
      ],
      "stateMutability": "view",
      "type": "function"
    },
    {
      "inputs": [],
      "name": "swapRouter",
      "outputs": [
        {
          "internalType": "contract IUniswapV2Router02",
          "name": "",
          "type": "address"
        }
      ],
      "stateMutability": "view",
      "type": "function"
    },
    {
      "inputs": [],
      "name": "symbol",
      "outputs": [
        {
          "internalType": "string",
          "name": "",
          "type": "string"
        }
      ],
      "stateMutability": "view",
      "type": "function"
    },
    {
      "inputs": [],
      "name": "timeToWait",
      "outputs": [
        {
          "internalType": "uint256",
          "name": "",
          "type": "uint256"
        }
      ],
      "stateMutability": "view",
      "type": "function"
    },
    {
      "inputs": [],
      "name": "tokenContract",
      "outputs": [
        {
          "internalType": "contract IERC20",
          "name": "",
          "type": "address"
        }
      ],
      "stateMutability": "view",
      "type": "function"
    },
    {
      "inputs": [],
      "name": "totalSupply",
      "outputs": [
        {
          "internalType": "uint256",
          "name": "",
          "type": "uint256"
        }
      ],
      "stateMutability": "view",
      "type": "function"
    },
    {
      "inputs": [
        {
          "internalType": "address",
          "name": "to",
          "type": "address"
        },
        {
          "internalType": "uint256",
          "name": "value",
          "type": "uint256"
        }
      ],
      "name": "transfer",
      "outputs": [
        {
          "internalType": "bool",
          "name": "",
          "type": "bool"
        }
      ],
      "stateMutability": "nonpayable",
      "type": "function"
    },
    {
      "inputs": [
        {
          "internalType": "address",
          "name": "from",
          "type": "address"
        },
        {
          "internalType": "address",
          "name": "to",
          "type": "address"
        },
        {
          "internalType": "uint256",
          "name": "value",
          "type": "uint256"
        }
      ],
      "name": "transferFrom",
      "outputs": [
        {
          "internalType": "bool",
          "name": "",
          "type": "bool"
        }
      ],
      "stateMutability": "nonpayable",
      "type": "function"
    },
    {
      "inputs": [
        {
          "internalType": "address",
          "name": "to",
          "type": "address"
        }
      ],
      "name": "transferOwnership",
      "outputs": [],
      "stateMutability": "nonpayable",
      "type": "function"
    },
    {
      "inputs": [
        {
          "internalType": "uint256",
          "name": "_proposalId",
          "type": "uint256"
        },
        {
          "internalType": "int8",
          "name": "support",
          "type": "int8"
        }
      ],
      "name": "vote",
      "outputs": [],
      "stateMutability": "nonpayable",
      "type": "function"
    },
    {
      "inputs": [],
      "name": "voteDuration",
      "outputs": [
        {
          "internalType": "uint256",
          "name": "",
          "type": "uint256"
        }
      ],
      "stateMutability": "view",
      "type": "function"
    },
    {
      "stateMutability": "payable",
      "type": "receive"
    }
  ],
  "bytecode": "0x60c06040527f474e34a077df58807dbe9c96d3c009b23b3c6d0cce433e59bbf5b34f823bc56c600655600780546001600160501b03191666020003002625a0179055603c600e55600f805460ff1990811660019081179092556064601055601180549091169091179055601780547394a9d9ac8a22534e3faca9f4e7f2e2cf85d5e4c86001600160a01b03199182161790915573c532a74256d3db42d0bf7a0400fefdbad769400860a0526003601d556000601e55600d54601f80546001600160a01b0390921691909216179055605a60205560056021819055602255348015620000e957600080fd5b50604051620035b5380380620035b58339810160408190526200010c9162000333565b604080518082018252600781526626bcaa37b5b2b760c91b602080830191909152825180840190935260038352624d544b60e81b908301526001600160a01b03831660805290612b39833380600081620001ad5760405162461bcd60e51b815260206004820152601860248201527f43616e6e6f7420736574206f776e657220746f207a65726f000000000000000060448201526064015b60405180910390fd5b600080546001600160a01b0319166001600160a01b0384811691909117909155811615620001e057620001e08162000288565b5050600380546001600160401b03909416600160a01b026001600160e01b03199094166001600160a01b039093169290921792909217905550600b6200022783826200040c565b50600c6200023682826200040c565b5050600d80546001600160a01b031933818116928216929092178217909255601f8054831690911790556016805490911673986b5e1e1755e3c2440e960477f25201b0a8bbd417905550620004d89050565b336001600160a01b03821603620002e25760405162461bcd60e51b815260206004820152601760248201527f43616e6e6f74207472616e7366657220746f2073656c660000000000000000006044820152606401620001a4565b600180546001600160a01b0319166001600160a01b0383811691821790925560008054604051929316917fed8889f560326eb138920d842192f0eb3dd22b4f139c87a2c57538e05bae12789190a350565b6000602082840312156200034657600080fd5b81516001600160a01b03811681146200035e57600080fd5b9392505050565b634e487b7160e01b600052604160045260246000fd5b600181811c908216806200039057607f821691505b602082108103620003b157634e487b7160e01b600052602260045260246000fd5b50919050565b601f82111562000407576000816000526020600020601f850160051c81016020861015620003e25750805b601f850160051c820191505b818110156200040357828155600101620003ee565b5050505b505050565b81516001600160401b0381111562000428576200042862000365565b62000440816200043984546200037b565b84620003b7565b602080601f8311600181146200047857600084156200045f5750858301515b600019600386901b1c1916600185901b17855562000403565b600085815260208120601f198616915b82811015620004a95788860151825594840194600190910190840162000488565b5085821015620004c85787850151600019600388901b60f8161c191681555b5050505050600190811b01905550565b60805160a0516130a2620005136000396000818161089b015281816112cc01526113d8015260008181610b650152610ba701526130a26000f3fe6080604052600436106103225760003560e01c80637a341bc7116101a5578063b289b0ff116100ec578063dd62ed3e11610095578063ee8f9d291161006f578063ee8f9d29146109a9578063f2fde38b146109c9578063f98a4eca146109e9578063fc2a88c314610a0957600080fd5b8063dd62ed3e1461092e578063e0c8628914610974578063ee6502481461098957600080fd5b8063d07acae9116100c6578063d07acae9146108bd578063d8a4676f146108ea578063dbe1c4d51461091857600080fd5b8063b289b0ff14610849578063b4c2c44d14610869578063c31c9c071461088957600080fd5b806395d89b411161014e578063a9059cbb11610128578063a9059cbb146107db578063ab4a46bb146107fb578063ad23de631461081057600080fd5b806395d89b4114610756578063a168fa891461076b578063a3274821146107bb57600080fd5b80638abf60771161017f5780638abf6077146106f85780638cd6bb6d146107185780638da5cb5b1461073857600080fd5b80637a341bc7146106a257806383d57997146106c25780638796ba8c146106d857600080fd5b806340c10f19116102695780636c0537171161021257806378e97925116101ec57806378e979251461065757806379ba50971461066d57806379cc67901461068257600080fd5b80636c053717146105dd5780636e04ff0d146105f357806370a082311461062157600080fd5b806355a373d61161024357806355a373d61461058757806356364499146105a7578063569f681f146105bd57600080fd5b806340c10f191461052757806342966c68146105475780634585e33b1461056757600080fd5b806321336748116102cb578063313ce567116102a5578063313ce567146104a15780633268cc56146104b55780633d04f3ac146104f557600080fd5b8063213367481461041257806323b872dd146104325780632c656bbb1461045257600080fd5b806318160ddd116102fc57806318160ddd146103b15780631c62c909146103d05780631fe543e3146103f257600080fd5b806306661abd1461032e57806306fdde031461035f578063095ea7b31461038157600080fd5b3661032957005b600080fd5b34801561033a57600080fd5b506011546103489060ff1681565b60405160ff90911681526020015b60405180910390f35b34801561036b57600080fd5b50610374610a1f565b60405161035691906128e2565b34801561038d57600080fd5b506103a161039c366004612918565b610ab1565b6040519015158152602001610356565b3480156103bd57600080fd5b50600a545b604051908152602001610356565b3480156103dc57600080fd5b506103f06103eb366004612942565b610acb565b005b3480156103fe57600080fd5b506103f061040d366004612a37565b610b5a565b34801561041e57600080fd5b506103c261042d366004612a7e565b610be2565b34801561043e57600080fd5b506103a161044d366004612abb565b610dba565b34801561045e57600080fd5b506103f061046d366004612942565b6001600160a01b03908116600090815260196020526040902060010154601680546001600160a01b03191691909216179055565b3480156104ad57600080fd5b506012610348565b3480156104c157600080fd5b506104dd73c532a74256d3db42d0bf7a0400fefdbad769400881565b6040516001600160a01b039091168152602001610356565b34801561050157600080fd5b5060115460ff166000908152601a602090815260408083203384529091529020546103c2565b34801561053357600080fd5b506103f0610542366004612918565b610e46565b34801561055357600080fd5b506103f0610562366004612af7565b610e50565b34801561057357600080fd5b506103f0610582366004612b10565b610e5d565b34801561059357600080fd5b506015546104dd906001600160a01b031681565b3480156105b357600080fd5b506103c2600e5481565b3480156105c957600080fd5b506103c26105d8366004612a7e565b610e6a565b3480156105e957600080fd5b506103c260105481565b3480156105ff57600080fd5b5061061361060e366004612b10565b610e9b565b604051610356929190612b82565b34801561062d57600080fd5b506103c261063c366004612942565b6001600160a01b031660009081526008602052604090205490565b34801561066357600080fd5b506103c2601e5481565b34801561067957600080fd5b506103f0610ec9565b34801561068e57600080fd5b506103f061069d366004612918565b610f7a565b3480156106ae57600080fd5b506103f06106bd366004612942565b610f8f565b3480156106ce57600080fd5b506103c2601c5481565b3480156106e457600080fd5b506103c26106f3366004612af7565b610ffe565b34801561070457600080fd5b506014546104dd906001600160a01b031681565b34801561072457600080fd5b506103f0610733366004612918565b61101f565b34801561074457600080fd5b506000546001600160a01b03166104dd565b34801561076257600080fd5b50610374611510565b34801561077757600080fd5b506107a4610786366004612af7565b60026020526000908152604090205460ff8082169161010090041682565b604080519215158352901515602083015201610356565b3480156107c757600080fd5b506103f06107d6366004612b9d565b61151f565b3480156107e757600080fd5b506103a16107f6366004612918565b6115d0565b34801561080757600080fd5b506103f061163b565b34801561081c57600080fd5b506103a161082b366004612942565b6001600160a01b031660009081526018602052604090205460ff1690565b34801561085557600080fd5b506103f0610864366004612942565b6116ce565b34801561087557600080fd5b506103f0610884366004612af7565b6116f8565b34801561089557600080fd5b506104dd7f000000000000000000000000000000000000000000000000000000000000000081565b3480156108c957600080fd5b50600f546108d79060000b81565b60405160009190910b8152602001610356565b3480156108f657600080fd5b5061090a610905366004612af7565b61174a565b604051610356929190612c15565b34801561092457600080fd5b506103c2601d5481565b34801561093a57600080fd5b506103c2610949366004612c30565b6001600160a01b03918216600090815260096020908152604080832093909416825291909152205490565b34801561098057600080fd5b506103c261183e565b34801561099557600080fd5b506103f06109a4366004612c63565b611a03565b3480156109b557600080fd5b506103f06109c4366004612942565b611c01565b3480156109d557600080fd5b506103f06109e4366004612942565b611c70565b3480156109f557600080fd5b506103f0610a04366004612af7565b611c81565b348015610a1557600080fd5b506103c260055481565b6060600b8054610a2e90612c99565b80601f0160208091040260200160405190810160405280929190818152602001828054610a5a90612c99565b8015610aa75780601f10610a7c57610100808354040283529160200191610aa7565b820191906000526020600020905b815481529060010190602001808311610a8a57829003601f168201915b5050505050905090565b600033610abf818585611f2a565b60019150505b92915050565b6001600160a01b03811660009081526018602052604090205460ff16610b385760405162461bcd60e51b815260206004820152601560248201527f546f6b656e206e6f742077686974656c6973746564000000000000000000000060448201526064015b60405180910390fd5b601580546001600160a01b0319166001600160a01b0392909216919091179055565b336001600160a01b037f00000000000000000000000000000000000000000000000000000000000000001614610bd45760405163073e64fd60e21b81523360048201526001600160a01b037f0000000000000000000000000000000000000000000000000000000000000000166024820152604401610b2f565b610bde8282611f37565b5050565b600060126000610bf184610e6a565b815260200190815260200160002060010154600014610c525760405162461bcd60e51b815260206004820152601d60248201527f537563682070726f706f73616c20616c726561647920657873697374210000006044820152606401610b2f565b60115460ff1660009081526013602090815260408083203380855292529091205415610cc05760405162461bcd60e51b815260206004820152601760248201527f596f75206861766520616c726561647920766f746564210000000000000000006044820152606401610b2f565b6000610ccb84610e6a565b604080516080810182526001600160a01b0385811682524260208084019182528385018a81526000606086018190528781526012835295909520845181546001600160a01b0319169416939093178355905160018301559251805194955091939092610d3e926002850192910190612822565b50606091909101516003909101805460ff191660ff9283161790556011541660009081526013602090815260408083206001600160a01b038616845282529182902083905590518281527f9a863892f20a6b9c6cec64d611b5864be6373191ce2cacc3b05a299bce3bf80e910160405180910390a19392505050565b60115460ff1660009081526013602090815260408083206001600160a01b0387168452909152812054339015610e255760405162461bcd60e51b815260206004820152601060248201526f596f752061726520696e20766f74652160801b6044820152606401610b2f565b610e30858285611ffa565b610e3b858585612078565b506001949350505050565b610bde82826120d7565b610e5a338261210d565b50565b610e6561183e565b505050565b600081604051602001610e7d9190612cd3565b60408051601f19818403018152919052805160209091012092915050565b60006060601e54600014158015610ec05750601d54601e54610ebd9190612cfc565b42115b91509250929050565b6001546001600160a01b03163314610f235760405162461bcd60e51b815260206004820152601660248201527f4d7573742062652070726f706f736564206f776e6572000000000000000000006044820152606401610b2f565b60008054336001600160a01b0319808316821784556001805490911690556040516001600160a01b0390921692909183917f8be0079c531659141344cd1fd0a4f28419497f9722a3daafe3b4186f6b6457e091a350565b610f85823383611ffa565b610bde828261210d565b600d546001600160a01b03163314610fdc5760405162461bcd60e51b815260206004820152601060248201526f596f7520617265206e6f742068696d2160801b6044820152606401610b2f565b601f80546001600160a01b0319166001600160a01b0392909216919091179055565b6004818154811061100e57600080fd5b600091825260209091200154905081565b61102882610acb565b6015546040516323b872dd60e01b8152336004820152306024820152604481018390526001600160a01b03909116906323b872dd906064016020604051808303816000875af115801561107f573d6000803e3d6000fd5b505050506040513d601f19601f820116820180604052508101906110a39190612d0f565b6110ef5760405162461bcd60e51b815260206004820152601560248201527f546f6b656e207472616e73666572206661696c656400000000000000000000006044820152606401610b2f565b601e546000036110fe5742601e555b60115460ff166000908152601a60209081526040808320338452909152812054900361116757601b80546001810182556000919091527f3ad8aa4f87544323a9d1e5dd902f40c356527a7955687113db5f9a85ad579dc10180546001600160a01b031916331790555b61119f826001600160a01b03908116600090815260196020526040902060010154601680546001600160a01b03191691909216179055565b60165460408051633fabe5a360e21b815290516000926001600160a01b03169163feaf968c9160048083019260a09291908290030181865afa1580156111e9573d6000803e3d6000fd5b505050506040513d601f19601f8201168201806040525081019061120d9190612d4b565b5050506001600160a01b038516600090815260196020526040812054919350915061123990600a612e7f565b670de0b6b3a764000061124c8585612e8b565b6112569190612eb8565b6112609190612eb8565b9050806000036112b25760405162461bcd60e51b815260206004820152601560248201527f596f75722064657020746f6f6f6f6f20736d616c6c00000000000000000000006044820152606401610b2f565b60155460405163095ea7b360e01b81526001600160a01b037f000000000000000000000000000000000000000000000000000000000000000081166004830152602482018690529091169063095ea7b3906044016020604051808303816000875af1158015611325573d6000803e3d6000fd5b505050506040513d601f19601f820116820180604052508101906113499190612d0f565b50604080516002808252606082018352600092602083019080368337019050509050848160008151811061137f5761137f612ecc565b6001600160a01b0392831660209182029290920101526017548251911690829060019081106113b0576113b0612ecc565b6001600160a01b0392831660209182029290920101526040516338ed173960e01b81526000917f000000000000000000000000000000000000000000000000000000000000000016906338ed1739906114159088908790879030904290600401612ee2565b6000604051808303816000875af1158015611434573d6000803e3d6000fd5b505050506040513d6000823e601f3d908101601f1916820160405261145c9190810190612f55565b905060008160018151811061147357611473612ecc565b60209081029190910181015160115460ff166000908152601a835260408082203383529093529182208054919350839290916114b0908490612cfc565b9250508190555080601c60008282546114c99190612cfc565b909155505060408051338152602081018390527fe1fffcc4923d04b559f4d29a8bfc6cda04eb5b0d3c460751c2402c5c5cc9109c910160405180910390a150505050505050565b6060600c8054610a2e90612c99565b600d546001600160a01b0316331461156c5760405162461bcd60e51b815260206004820152601060248201526f596f7520617265206e6f742068696d2160801b6044820152606401610b2f565b6001600160a01b0392831660008181526018602090815260408083208054600160ff19909116811790915581518083018352968752948716868301908152938352601990915290209251835551910180546001600160a01b03191691909216179055565b60115460ff166000908152601360209081526040808320338085529252822054156116305760405162461bcd60e51b815260206004820152601060248201526f596f752061726520696e20766f74652160801b6044820152606401610b2f565b610abf818585612078565b601e541580159061165a5750601d54601e546116579190612cfc565b42115b6116cc5760405162461bcd60e51b815260206004820152603a60248201527f54696d65206973206e6f7420746f206265207761737465642c2067616d626c6560448201527f206d6f7265207768696c6520796f75207374696c6c2063616e210000000000006064820152608401610b2f565b565b6116d6612143565b600380546001600160a01b0319166001600160a01b0392909216919091179055565b600d546001600160a01b031633146117455760405162461bcd60e51b815260206004820152601060248201526f596f7520617265206e6f742068696d2160801b6044820152606401610b2f565b601d55565b600081815260026020526040812054606090610100900460ff166117a45760405162461bcd60e51b81526020600482015260116024820152701c995c5d595cdd081b9bdd08199bdd5b99607a1b6044820152606401610b2f565b60008381526002602090815260408083208151606081018352815460ff808216151583526101009091041615158185015260018201805484518187028101870186528181529295939486019383018282801561181f57602002820191906000526020600020905b81548152602001906001019080831161180b575b5050505050815250509050806000015181604001519250925050915091565b600061184861163b565b6003546006546007546040516305d3b1d360e41b81526004810192909252600160a01b830467ffffffffffffffff166024830152640100000000810461ffff16604483015263ffffffff808216606484015266010000000000009091041660848201526001600160a01b0390911690635d3b1d309060a4016020604051808303816000875af11580156118df573d6000803e3d6000fd5b505050506040513d601f19601f820116820180604052508101906119039190612fe6565b6040805160608101825260008082526001602080840182815285518481528083018752858701908152878552600283529590932084518154945161ffff1990951690151561ff001916176101009415159490940293909317835593518051959650929491936119789391850192910190612822565b5050600480546001810182556000919091527f8a35acfbc15ff81a39ae7d344fd709f28e8600b4aa8c65c6b64bfe7fe36bd19b0182905550600581905560075460408051838152660100000000000090920463ffffffff1660208301527fcc58b13ad3eab50626c6a6300b1d139cd6ebb1688a7cced9461c2f7e762665ee910160405180910390a190565b600082815260126020526040902060010154611a545760405162461bcd60e51b815260206004820152601060248201526f139bc81cdd58da081c1c9bdc1bdcd85b60821b6044820152606401610b2f565b8060000b6000191480611a6a57508060000b6001145b611aa15760405162461bcd60e51b8152602060048201526008602482015267496e76616c69643f60c01b6044820152606401610b2f565b6010543360008181526008602052604090205490911115611b045760405162461bcd60e51b815260206004820152601260248201527f4e6f7420656e6f7567687420706f7765722100000000000000000000000000006044820152606401610b2f565b60115460ff1660009081526013602090815260408083206001600160a01b038516845290915290205415611b7a5760405162461bcd60e51b815260206004820152601760248201527f596f75206861766520616c726561647920766f746564210000000000000000006044820152606401610b2f565b60008381526012602052604081206003018054849290611b9d908490830b612fff565b825460ff9182166101009390930a928302919092021990911617905550604080516001600160a01b0383168152602081018590527fff14080bcf45460ad8e42f48fb1741ebb5632b5394c805a3526ecc99e9a97a54910160405180910390a1505050565b600d546001600160a01b03163314611c4e5760405162461bcd60e51b815260206004820152601060248201526f596f7520617265206e6f742068696d2160801b6044820152606401610b2f565b601780546001600160a01b0319166001600160a01b0392909216919091179055565b611c78612190565b610e5a816121ea565b60008181526012602052604090206001810154611cd35760405162461bcd60e51b815260206004820152601060248201526f139bc81cdd58da081c1c9bdc1bdcd85b60821b6044820152606401610b2f565b600e548160010154611ce59190612cfc565b4211611d335760405162461bcd60e51b815260206004820152601360248201527f566f7465206973207374696c6c20676f696e67000000000000000000000000006044820152606401610b2f565b600f546003820154600091820b910b13611d8f5760405162461bcd60e51b815260206004820152601260248201527f51756f72756d206e6f74207265616368656400000000000000000000000000006044820152606401610b2f565b611dea81600201805480602002602001604051908101604052809291908181526020018280548015611de057602002820191906000526020600020905b815481526020019060010190808311611dcc575b5050505050612293565b6011805460ff16906000611dfd83613020565b91906101000a81548160ff021916908360ff16021790555050604051806080016040528060006001600160a01b0316815260200160008152602001600067ffffffffffffffff811115611e5257611e5261295d565b604051908082528060200260200182016040528015611e7b578160200160208202803683370190505b5081526000602091820181905284815260128252604090819020835181546001600160a01b0319166001600160a01b039091161781558383015160018201559083015180519192611ed492600285019290910190612822565b50606091909101516003909101805460ff191660ff9092169190911790556040518281527f5aa6cc03c285cf43c4e52f19f8e637fa3fa4a1f04bdaf771c59abf6d48074790906020015b60405180910390a15050565b610e6583838360016122f9565b600082815260026020526040902054610100900460ff16611f8e5760405162461bcd60e51b81526020600482015260116024820152701c995c5d595cdd081b9bdd08199bdd5b99607a1b6044820152606401610b2f565b6000828152600260209081526040909120805460ff1916600190811782558351611fbf939290910191840190612822565b50611fc9816123ce565b7ffe2e2d779dba245964d4e3ef9b994be63856fd568bf7d3ca9e224755cb1bd54d8282604051611f1e92919061303f565b6001600160a01b038381166000908152600960209081526040808320938616835292905220546000198114612072578181101561206357604051637dc7a0d960e11b81526001600160a01b03841660048201526024810182905260448101839052606401610b2f565b612072848484840360006122f9565b50505050565b6001600160a01b0383166120a257604051634b637e8f60e11b815260006004820152602401610b2f565b6001600160a01b0382166120cc5760405163ec442f0560e01b815260006004820152602401610b2f565b610e658383836126f8565b6001600160a01b0382166121015760405163ec442f0560e01b815260006004820152602401610b2f565b610bde600083836126f8565b6001600160a01b03821661213757604051634b637e8f60e11b815260006004820152602401610b2f565b610bde826000836126f8565b600d546001600160a01b031633146116cc5760405162461bcd60e51b815260206004820152601060248201526f596f7520617265206e6f742068696d2160801b6044820152606401610b2f565b6000546001600160a01b031633146116cc5760405162461bcd60e51b815260206004820152601660248201527f4f6e6c792063616c6c61626c65206279206f776e6572000000000000000000006044820152606401610b2f565b336001600160a01b038216036122425760405162461bcd60e51b815260206004820152601760248201527f43616e6e6f74207472616e7366657220746f2073656c660000000000000000006044820152606401610b2f565b600180546001600160a01b0319166001600160a01b0383811691821790925560008054604051929316917fed8889f560326eb138920d842192f0eb3dd22b4f139c87a2c57538e05bae12789190a350565b806000815181106122a6576122a6612ecc565b6020026020010151602081905550806001815181106122c7576122c7612ecc565b6020026020010151602181905550806002815181106122e8576122e8612ecc565b602002602001015160228190555050565b6001600160a01b0384166123235760405163e602df0560e01b815260006004820152602401610b2f565b6001600160a01b03831661234d57604051634a1406b160e11b815260006004820152602401610b2f565b6001600160a01b038085166000908152600960209081526040808320938716835292905220829055801561207257826001600160a01b0316846001600160a01b03167f8c5be1e5ebec7d5bd14f71427d1e84f3dd0314c0f7b2291e5b200ac8c7c3b925846040516123c091815260200190565b60405180910390a350505050565b60008060005b601b548110156124e45760115460ff166000908152601a60205260408120601b80549192918490811061240957612409612ecc565b60009182526020808320909101546001600160a01b031683528201929092526040019020546124389083612cfc565b91506000601c548560008151811061245257612452612ecc565b60200260200101511161247f578460008151811061247257612472612ecc565b60200260200101516124a7565b601c548560008151811061249557612495612ecc565b60200260200101516124a79190613058565b90508281116124db57601b82815481106124c3576124c3612ecc565b6000918252602090912001546001600160a01b031693505b506001016123d4565b506001600160a01b03821661251f57601b60008154811061250757612507612ecc565b6000918252602090912001546001600160a01b031691505b601754602054601c546001600160a01b0390921691829163a9059cbb91869160649161254b9190612e8b565b6125559190612eb8565b6040516001600160e01b031960e085901b1681526001600160a01b03909216600483015260248201526044016020604051808303816000875af11580156125a0573d6000803e3d6000fd5b505050506040513d601f19601f820116820180604052508101906125c49190612d0f565b50601f54602154601c546001600160a01b038085169363a9059cbb939116916064916125ef91612e8b565b6125f99190612eb8565b6040516001600160e01b031960e085901b1681526001600160a01b03909216600483015260248201526044016020604051808303816000875af1158015612644573d6000803e3d6000fd5b505050506040513d601f19601f820116820180604052508101906126689190612d0f565b506011805460ff1690600061267c83613020565b91906101000a81548160ff021916908360ff16021790555050601b60006126a3919061286d565b6000601c819055601e819055604080516001600160a01b038616815260208101929092527f6747c18256028de8cd2fa276e75d6b4193ac34c1b55fa8e71797ac132d32ad39910160405180910390a150505050565b6001600160a01b0383166127235780600a60008282546127189190612cfc565b909155506127959050565b6001600160a01b038316600090815260086020526040902054818110156127765760405163391434e360e21b81526001600160a01b03851660048201526024810182905260448101839052606401610b2f565b6001600160a01b03841660009081526008602052604090209082900390555b6001600160a01b0382166127b157600a805482900390556127d0565b6001600160a01b03821660009081526008602052604090208054820190555b816001600160a01b0316836001600160a01b03167fddf252ad1be2c89b69c2b068fc378daa952ba7f163c4a11628f55a4df523b3ef8360405161281591815260200190565b60405180910390a3505050565b82805482825590600052602060002090810192821561285d579160200282015b8281111561285d578251825591602001919060010190612842565b50612869929150612887565b5090565b5080546000825590600052602060002090810190610e5a91905b5b808211156128695760008155600101612888565b6000815180845260005b818110156128c2576020818501810151868301820152016128a6565b506000602082860101526020601f19601f83011685010191505092915050565b6020815260006128f5602083018461289c565b9392505050565b80356001600160a01b038116811461291357600080fd5b919050565b6000806040838503121561292b57600080fd5b612934836128fc565b946020939093013593505050565b60006020828403121561295457600080fd5b6128f5826128fc565b634e487b7160e01b600052604160045260246000fd5b604051601f8201601f1916810167ffffffffffffffff8111828210171561299c5761299c61295d565b604052919050565b600067ffffffffffffffff8211156129be576129be61295d565b5060051b60200190565b600082601f8301126129d957600080fd5b813560206129ee6129e9836129a4565b612973565b8083825260208201915060208460051b870101935086841115612a1057600080fd5b602086015b84811015612a2c5780358352918301918301612a15565b509695505050505050565b60008060408385031215612a4a57600080fd5b82359150602083013567ffffffffffffffff811115612a6857600080fd5b612a74858286016129c8565b9150509250929050565b600060208284031215612a9057600080fd5b813567ffffffffffffffff811115612aa757600080fd5b612ab3848285016129c8565b949350505050565b600080600060608486031215612ad057600080fd5b612ad9846128fc565b9250612ae7602085016128fc565b9150604084013590509250925092565b600060208284031215612b0957600080fd5b5035919050565b60008060208385031215612b2357600080fd5b823567ffffffffffffffff80821115612b3b57600080fd5b818501915085601f830112612b4f57600080fd5b813581811115612b5e57600080fd5b866020828501011115612b7057600080fd5b60209290920196919550909350505050565b8215158152604060208201526000612ab3604083018461289c565b600080600060608486031215612bb257600080fd5b612bbb846128fc565b925060208401359150612bd0604085016128fc565b90509250925092565b60008151808452602080850194506020840160005b83811015612c0a57815187529582019590820190600101612bee565b509495945050505050565b8215158152604060208201526000612ab36040830184612bd9565b60008060408385031215612c4357600080fd5b612c4c836128fc565b9150612c5a602084016128fc565b90509250929050565b60008060408385031215612c7657600080fd5b8235915060208301358060000b8114612c8e57600080fd5b809150509250929050565b600181811c90821680612cad57607f821691505b602082108103612ccd57634e487b7160e01b600052602260045260246000fd5b50919050565b6020815260006128f56020830184612bd9565b634e487b7160e01b600052601160045260246000fd5b80820180821115610ac557610ac5612ce6565b600060208284031215612d2157600080fd5b815180151581146128f557600080fd5b805169ffffffffffffffffffff8116811461291357600080fd5b600080600080600060a08688031215612d6357600080fd5b612d6c86612d31565b9450602086015193506040860151925060608601519150612d8f60808701612d31565b90509295509295909350565b600181815b80851115612dd6578160001904821115612dbc57612dbc612ce6565b80851615612dc957918102915b93841c9390800290612da0565b509250929050565b600082612ded57506001610ac5565b81612dfa57506000610ac5565b8160018114612e105760028114612e1a57612e36565b6001915050610ac5565b60ff841115612e2b57612e2b612ce6565b50506001821b610ac5565b5060208310610133831016604e8410600b8410161715612e59575081810a610ac5565b612e638383612d9b565b8060001904821115612e7757612e77612ce6565b029392505050565b60006128f58383612dde565b8082028115828204841417610ac557610ac5612ce6565b634e487b7160e01b600052601260045260246000fd5b600082612ec757612ec7612ea2565b500490565b634e487b7160e01b600052603260045260246000fd5b600060a08201878352602087602085015260a0604085015281875180845260c08601915060208901935060005b81811015612f345784516001600160a01b031683529383019391830191600101612f0f565b50506001600160a01b03969096166060850152505050608001529392505050565b60006020808385031215612f6857600080fd5b825167ffffffffffffffff811115612f7f57600080fd5b8301601f81018513612f9057600080fd5b8051612f9e6129e9826129a4565b81815260059190911b82018301908381019087831115612fbd57600080fd5b928401925b82841015612fdb57835182529284019290840190612fc2565b979650505050505050565b600060208284031215612ff857600080fd5b5051919050565b600081810b9083900b01607f8113607f1982121715610ac557610ac5612ce6565b600060ff821660ff810361303657613036612ce6565b60010192915050565b828152604060208201526000612ab36040830184612bd9565b60008261306757613067612ea2565b50069056fea2646970667358221220d749c75306b2462921019ae08e47934d1804a5b5cba13d039a9dbd30b143c9a064736f6c63430008180033",
  "linkReferences": {},
  "deployedLinkReferences": {}
}